:020000040000FA
:100000008316FF23900004289F012D308500831262
:100010008501073099001328831605102C204720EE
:10002000282039200C289A30A9009330AA00D23019
:10003000AB00BA30AC005730AD004030AE000830F5
:10004000A7000530A2001E30A1004F30A0006B2891
:100050008316051483120800831605108312080006
:100060000630A4002830A300A30B3428A40B3428A6
:1000700008003330A500BB30A400DF30A300A30B81
:100080003F28A40B3F28A50B3F280034080006306A
:10009000A5001330A400AD30A300A30B4D28A40B82
:1000A0004D28A50B4D28003408002820831205197F
:1000B0000229A00B5C28F128D930A400E130A3006C
:1000C000A30B6028A40B60287C28831685120800E7
:1000D0008316851608001930A5005A30A400B230E6
:1000E000A300A30B7128A40B7128A50B71287828F5
:1000F0008312051D7C280C288316A20B80286520FE
:10010000A10B832868202C208528A91B88288E28ED
:1001100083160516A90D3020A7038528831605121E
:10012000A90D3020A70B8528A715A90D9728AA1B74
:100130009A28A32883160516AA0D3020A70B972806
:10014000A715AA0DA92883160512AA0D3020A7030A
:100150009728AB1BAC28B22883160516AB0D3020B0
:10016000A703A92883160512AB0D3020A70BA928D9
:10017000A715AB0DBB28AC1BBE28C42883160516DB
:10018000AC0D3020A703BB2883160512AC0D302020
:10019000A70BBB28A715AC0DCD28AD1BD028D9289F
:1001A00083160516AD0D3020A70BCD28A715AD0D74
:1001B000DF2883160512AD0D3020A703CD28AE1B16
:1001C000E228E82883160516AE0D3020A703DF28A5
:1001D00083160512AE0D3020A70BDF28A715AE0D34
:1001E000552883122C200519022947202820472052
:1001F0000519022947200519022947200519022956
:100200004720F12883160516851683120830A700AB
:100210000530A2001E30A1004F30A0000F292C2075
:080220008312051D7C280F2943
:04022800003400346A
:02400E00A43FCD
:00000001FF
