:020000040000FA
:100000008316FF23900004289F012D308500831262
:1000100085010730990014288316051005162D2038
:10002000472029203A200C289A30A9009330AA00B2
:10003000D230AB00BA30AC005730AD004030AE002B
:100040000830A7000530A2001E30A1004F30A000EC
:100050006D28831605148312080083160510831279
:1000600008000630A4002830A300A30B3528A40BF9
:10007000352808003330A500BB30A400DF30A300D2
:10008000A30B4028A40B4028A50B402808000630ED
:10009000A5001330A400AD30A300A30B4D28A40B82
:1000A0004D28A50B4D280800292083120519042985
:1000B000A00B5E28831605168312F328D930A400FE
:1000C000E130A300A30B6228A40B62287E288316CC
:1000D000851208008316851608001930A5005A30CD
:1000E000A400B230A300A30B7328A40B7328A50BA4
:1000F00073287A288312051D7E280C288316A20BEC
:1001000082286720A10B85286A202D208728A91B1B
:100110008A28902883160516A90D3120A703872861
:1001200083160512A90D3120A70B8728A715A90D45
:100130009928AA1B9C28A52883160516AA0D3120EC
:10014000A70B9928A715AA0DAB2883160512AA0D8F
:100150003120A7039928AB1BAE28B42883160516B7
:10016000AB0D3120A703AB2883160512AB0D312050
:10017000A70BAB28A715AB0DBD28AC1BC028C62804
:1001800083160516AC0D3120A703BD288316051272
:10019000AC0D3120A70BBD28A715AC0DCF28AD1B8A
:1001A000D228DB2883160516AD0D3120A70BCF28EA
:1001B000A715AD0DE12883160512AD0D3120A7035B
:1001C000CF28AE1BE428EA2883160516AE0D312091
:1001D000A703E12883160512AE0D3120A70BE128F5
:1001E000A715AE0D542883122D2005190429472088
:1001F00029204720051904294720051904294720EB
:10020000051904294720F32883160516851683123D
:100210000830A7000530A2001E30A1004F30A0001A
:0C02200011292D208312051D7E281129B4
:04022C000034003466
:02400E00843FED
:00000001FF
